{
  "contractName": "SITApreferences",
  "abi": [
    {
      "inputs": [],
      "payable": false,
      "stateMutability": "nonpayable",
      "type": "constructor"
    },
    {
      "constant": false,
      "inputs": [
        {
          "internalType": "uint256",
          "name": "spatial",
          "type": "uint256"
        },
        {
          "internalType": "uint256",
          "name": "identity",
          "type": "uint256"
        },
        {
          "internalType": "uint256",
          "name": "temporal",
          "type": "uint256"
        },
        {
          "internalType": "uint256",
          "name": "activity",
          "type": "uint256"
        }
      ],
      "name": "setPreferences",
      "outputs": [
        {
          "internalType": "bool",
          "name": "success",
          "type": "bool"
        }
      ],
      "payable": false,
      "stateMutability": "nonpayable",
      "type": "function"
    },
    {
      "constant": false,
      "inputs": [],
      "name": "getPreferences",
      "outputs": [
        {
          "internalType": "uint256[4]",
          "name": "preferencesList",
          "type": "uint256[4]"
        }
      ],
      "payable": false,
      "stateMutability": "nonpayable",
      "type": "function"
    }
  ],
  "bytecode": "0x608060405234801561001057600080fd5b506102a4806100206000396000f3fe608060405234801561001057600080fd5b50600436106100365760003560e01c806307a666ba1461003b578063387f147e1461009f575b600080fd5b6100856004803603608081101561005157600080fd5b81019080803590602001909291908035906020019092919080359060200190929190803590602001909291905050506100e5565b604051808215151515815260200191505060405180910390f35b6100a7610161565b6040518082600460200280838360005b838110156100d25780820151818401526020810190506100b7565b5050505090500191505060405180910390f35b60006040518060800160405280868152602001858152602001848152602001838152506000803373ffffffffffffffffffffffffffffffffffffffff1673ffffffffffffffffffffffffffffffffffffffff1681526020019081526020016000209060046101549291906101e8565b5060019050949350505050565b610169610228565b6000803373ffffffffffffffffffffffffffffffffffffffff1673ffffffffffffffffffffffffffffffffffffffff1681526020019081526020016000206004806020026040519081016040528092919082600480156101de576020028201915b8154815260200190600101908083116101ca575b5050505050905090565b8260048101928215610217579160200282015b828111156102165782518255916020019190600101906101fb565b5b509050610224919061024a565b5090565b6040518060800160405280600490602082028038833980820191505090505090565b61026c91905b80821115610268576000816000905550600101610250565b5090565b9056fea265627a7a723158202cda266cd77e132f1217c11ab1a6a045cdd0c221b0e0d9eba9fb5f4baf90bb8a64736f6c63430005100032",
  "source": "pragma solidity >=0.4.22 <0.8.0;\r\n \r\ncontract SITApreferences{\r\n   // Model a preferences set\r\n    //struct Preferences { // Might be easier to store preferences as a list or a different structure, particularly when we want to encrypt\r\n        //uint spatial;\r\n        //uint identity;\r\n        //uint temporal;\r\n        //uint activity;\r\n    //}\r\n\r\n\r\n    mapping(address => uint[4]) userpreferences;\r\n\r\n    constructor() public{}\r\n\r\n    function setPreferences(uint spatial, uint identity, uint temporal, uint activity) public returns(bool success){\r\n      // Require statement here to ensure all dimensions are 0-4\r\n      userpreferences[msg.sender] = [spatial,identity,temporal,activity];\r\n      return(true); // Need to return upon success of setting, but need require statement\r\n    }\r\n\r\n    function getPreferences() public returns(uint[4] memory preferencesList){\r\n      return(userpreferences[msg.sender]);\r\n\r\n    }\r\n\r\n}",
  "sourcePath": "C:\\Users\\joelg\\Desktop\\SITA tests\\contracts\\SITApreferences.sol",
  "compiler": {
    "name": "solc",
    "version": "0.5.16+commit.9c3226ce.Emscripten.clang"
  },
  "schemaVersion": "3.4.4",
  "updatedAt": "2022-03-07T16:51:42.316Z",
  "networkType": "ethereum",
  "devdoc": {
    "methods": {}
  },
  "userdoc": {
    "methods": {}
  }
}