{
  "contractName": "SITApreferences2",
  "abi": [
    {
      "inputs": [],
      "payable": false,
      "stateMutability": "nonpayable",
      "type": "constructor"
    },
    {
      "constant": true,
      "inputs": [
        {
          "internalType": "address",
          "name": "",
          "type": "address"
        },
        {
          "internalType": "uint256",
          "name": "",
          "type": "uint256"
        }
      ],
      "name": "usedKeys",
      "outputs": [
        {
          "internalType": "string",
          "name": "",
          "type": "string"
        }
      ],
      "payable": false,
      "stateMutability": "view",
      "type": "function"
    },
    {
      "constant": false,
      "inputs": [
        {
          "internalType": "uint256",
          "name": "spatial",
          "type": "uint256"
        },
        {
          "internalType": "uint256",
          "name": "identity",
          "type": "uint256"
        },
        {
          "internalType": "uint256",
          "name": "temporal",
          "type": "uint256"
        },
        {
          "internalType": "uint256",
          "name": "activity",
          "type": "uint256"
        },
        {
          "internalType": "string",
          "name": "key",
          "type": "string"
        }
      ],
      "name": "setPreferences",
      "outputs": [
        {
          "internalType": "bool",
          "name": "success",
          "type": "bool"
        }
      ],
      "payable": false,
      "stateMutability": "nonpayable",
      "type": "function"
    },
    {
      "constant": false,
      "inputs": [
        {
          "internalType": "string",
          "name": "key",
          "type": "string"
        }
      ],
      "name": "getPreferences",
      "outputs": [
        {
          "internalType": "uint256[4]",
          "name": "preferencesList",
          "type": "uint256[4]"
        }
      ],
      "payable": false,
      "stateMutability": "nonpayable",
      "type": "function"
    }
  ],
  "bytecode": "0x608060405234801561001057600080fd5b50610a7b806100206000396000f3fe608060405234801561001057600080fd5b50600436106100415760003560e01c80631c54a47f146100465780635224ee5b1461013d578063c2088c2b14610238575b600080fd5b6100ff6004803603602081101561005c57600080fd5b810190808035906020019064010000000081111561007957600080fd5b82018360208201111561008b57600080fd5b803590602001918460018302840111640100000000831117156100ad57600080fd5b91908080601f016020809104026020016040519081016040528093929190818152602001838380828437600081840152601f19601f8201169050808301925050505050505091929192905050506102ff565b6040518082600460200280838360005b8381101561012a57808201518184015260208101905061010f565b5050505090500191505060405180910390f35b61021e600480360360a081101561015357600080fd5b81019080803590602001909291908035906020019092919080359060200190929190803590602001909291908035906020019064010000000081111561019857600080fd5b8201836020820111156101aa57600080fd5b803590602001918460018302840111640100000000831117156101cc57600080fd5b91908080601f016020809104026020016040519081016040528093929190818152602001838380828437600081840152601f19601f8201169050808301925050505050505091929192905050506104c4565b604051808215151515815260200191505060405180910390f35b6102846004803603604081101561024e57600080fd5b81019080803573ffffffffffffffffffffffffffffffffffffffff16906020019092919080359060200190929190505050610879565b6040518080602001828103825283818151815260200191508051906020019080838360005b838110156102c45780820151818401526020810190506102a9565b50505050905090810190601f1680156102f15780820380516001836020036101000a031916815260200191505b509250505060405180910390f35b61030761093f565b6060826040516020018082805190602001908083835b60208310610340578051825260208201915060208101905060208303925061031d565b6001836020036101000a038019825116818451168082178552505050505050905001915050604051602081830303815290604052905060003382604051602001808373ffffffffffffffffffffffffffffffffffffffff1673ffffffffffffffffffffffffffffffffffffffff1660601b815260140182805190602001908083835b602083106103e557805182526020820191506020810190506020830392506103c2565b6001836020036101000a038019825116818451168082178552505050505050905001925050506040516020818303038152906040526040518082805190602001908083835b6020831061044d578051825260208201915060208101905060208303925061042a565b6001836020036101000a03801982511681845116808217855250505050505090500191505090815260200160405180910390206004806020026040519081016040528092919082600480156104b7576020028201915b8154815260200190600101908083116104a3575b5050505050915050919050565b60006060600160003373ffffffffffffffffffffffffffffffffffffffff1673ffffffffffffffffffffffffffffffffffffffff168152602001908152602001600020805480602002602001604051908101604052809291908181526020016000905b828210156105e3578382906000526020600020018054600181600116156101000203166002900480601f0160208091040260200160405190810160405280929190818152602001828054600181600116156101000203166002900480156105cf5780601f106105a4576101008083540402835291602001916105cf565b820191906000526020600020905b8154815290600101906020018083116105b257829003601f168201915b505050505081526020019060010190610527565b505050509050600080905060005b825181101561063557848051906020012083828151811061060e57fe5b602002602001015180519060200120141561062857600191505b80806001019150506105f1565b506000151581151514156106c057600160003373ffffffffffffffffffffffffffffffffffffffff1673ffffffffffffffffffffffffffffffffffffffff1681526020019081526020016000208490806001815401808255809150509060018203906000526020600020016000909192909190915090805190602001906106bd929190610961565b50505b6060846040516020018082805190602001908083835b602083106106f957805182526020820191506020810190506020830392506106d6565b6001836020036101000a038019825116818451168082178552505050505050905001915050604051602081830303815290604052905060405180608001604052808a81526020018981526020018881526020018781525060003383604051602001808373ffffffffffffffffffffffffffffffffffffffff1673ffffffffffffffffffffffffffffffffffffffff1660601b815260140182805190602001908083835b602083106107bf578051825260208201915060208101905060208303925061079c565b6001836020036101000a038019825116818451168082178552505050505050905001925050506040516020818303038152906040526040518082805190602001908083835b602083106108275780518252602082019150602081019050602083039250610804565b6001836020036101000a03801982511681845116808217855250505050505090500191505090815260200160405180910390209060046108689291906109e1565b506001935050505095945050505050565b6001602052816000526040600020818154811061089257fe5b90600052602060002001600091509150508054600181600116156101000203166002900480601f0160208091040260200160405190810160405280929190818152602001828054600181600116156101000203166002900480156109375780601f1061090c57610100808354040283529160200191610937565b820191906000526020600020905b81548152906001019060200180831161091a57829003601f168201915b505050505081565b6040518060800160405280600490602082028038833980820191505090505090565b828054600181600116156101000203166002900490600052602060002090601f016020900481019282601f106109a257805160ff19168380011785556109d0565b828001600101855582156109d0579182015b828111156109cf5782518255916020019190600101906109b4565b5b5090506109dd9190610a21565b5090565b8260048101928215610a10579160200282015b82811115610a0f5782518255916020019190600101906109f4565b5b509050610a1d9190610a21565b5090565b610a4391905b80821115610a3f576000816000905550600101610a27565b5090565b9056fea265627a7a723158201dd3df3af5b932a1aa77a76c98d4d9fa0cc317cac07e559b183322c416b81f7064736f6c63430005100032",
  "source": "pragma solidity >=0.4.22 <0.8.0;\r\n \r\ncontract SITApreferences2{\r\n    mapping(bytes => uint[4]) private userpreferences; // Mapping bytes (address + key) as you cant use struct or array as mapping keys\r\n    // Need to use bytes to be able to concatenate the address and key, should change later to a particular size bytes when we know address and key combined size\r\n\r\n    mapping(address => string[]) public usedKeys; // String array of the H(key) in use for a user\r\n\r\n    mapping(bytes => address[]) private approvedAddresses; // Mapping linking address + H(key) to approved addresses\r\n\r\n    constructor() public{}\r\n\r\n    function setPreferences(uint spatial, uint identity, uint temporal, uint activity, string memory key) public returns(bool success){\r\n      // Require statement here to ensure all dimensions are 0-4\r\n      string[] memory usersKeys = usedKeys[msg.sender];\r\n      bool exists = false;\r\n\r\n      for(uint i; i < usersKeys.length; i++){\r\n        if (keccak256(bytes(usersKeys[i])) == keccak256(bytes(key))){\r\n          exists = true;\r\n        }\r\n      }\r\n      if (exists == false){\r\n        usedKeys[msg.sender].push(key);\r\n      }\r\n      bytes memory keyBytes = abi.encodePacked(key); // Convert string parameter for the secret key to bytes\r\n      userpreferences[abi.encodePacked(msg.sender, keyBytes)] = [spatial,identity,temporal,activity]; // Store the preference array mapped under address + secret key as the mapping key\r\n      return(true); // Need to return upon success of setting, but need require statement\r\n    }\r\n\r\n    function getPreferences(string memory key) public returns(uint[4] memory preferencesList){\r\n      bytes memory keyBytes = abi.encodePacked(key); // Convert string parameter for the secret key to bytes\r\n      return(userpreferences[abi.encodePacked(msg.sender, keyBytes)]);\r\n\r\n    }\r\n\r\n}",
  "sourcePath": "C:\\Users\\joelg\\Desktop\\SITA tests\\contracts\\SITApreferences2.sol",
  "compiler": {
    "name": "solc",
    "version": "0.5.16+commit.9c3226ce.Emscripten.clang"
  },
  "schemaVersion": "3.4.4",
  "updatedAt": "2022-03-17T13:36:37.569Z",
  "networkType": "ethereum",
  "devdoc": {
    "methods": {}
  },
  "userdoc": {
    "methods": {}
  }
}