{
  "contractName": "SITApreferences2",
  "abi": [
    {
      "inputs": [],
      "payable": false,
      "stateMutability": "nonpayable",
      "type": "constructor"
    },
    {
      "constant": false,
      "inputs": [
        {
          "internalType": "uint256",
          "name": "spatial",
          "type": "uint256"
        },
        {
          "internalType": "uint256",
          "name": "identity",
          "type": "uint256"
        },
        {
          "internalType": "uint256",
          "name": "temporal",
          "type": "uint256"
        },
        {
          "internalType": "uint256",
          "name": "activity",
          "type": "uint256"
        },
        {
          "internalType": "string",
          "name": "key",
          "type": "string"
        }
      ],
      "name": "setPreferences",
      "outputs": [
        {
          "internalType": "bool",
          "name": "success",
          "type": "bool"
        }
      ],
      "payable": false,
      "stateMutability": "nonpayable",
      "type": "function"
    },
    {
      "constant": false,
      "inputs": [
        {
          "internalType": "string",
          "name": "key",
          "type": "string"
        }
      ],
      "name": "getPreferences",
      "outputs": [
        {
          "internalType": "uint256[4]",
          "name": "preferencesList",
          "type": "uint256[4]"
        }
      ],
      "payable": false,
      "stateMutability": "nonpayable",
      "type": "function"
    }
  ],
  "bytecode": "0x608060405234801561001057600080fd5b50610667806100206000396000f3fe608060405234801561001057600080fd5b50600436106100365760003560e01c80631c54a47f1461003b5780635224ee5b14610132575b600080fd5b6100f46004803603602081101561005157600080fd5b810190808035906020019064010000000081111561006e57600080fd5b82018360208201111561008057600080fd5b803590602001918460018302840111640100000000831117156100a257600080fd5b91908080601f016020809104026020016040519081016040528093929190818152602001838380828437600081840152601f19601f82011690508083019250505050505050919291929050505061022d565b6040518082600460200280838360005b8381101561011f578082015181840152602081019050610104565b5050505090500191505060405180910390f35b610213600480360360a081101561014857600080fd5b81019080803590602001909291908035906020019092919080359060200190929190803590602001909291908035906020019064010000000081111561018d57600080fd5b82018360208201111561019f57600080fd5b803590602001918460018302840111640100000000831117156101c157600080fd5b91908080601f016020809104026020016040519081016040528093929190818152602001838380828437600081840152601f19601f8201169050808301925050505050505091929192905050506103f2565b604051808215151515815260200191505060405180910390f35b6102356105ab565b6060826040516020018082805190602001908083835b6020831061026e578051825260208201915060208101905060208303925061024b565b6001836020036101000a038019825116818451168082178552505050505050905001915050604051602081830303815290604052905060003382604051602001808373ffffffffffffffffffffffffffffffffffffffff1673ffffffffffffffffffffffffffffffffffffffff1660601b815260140182805190602001908083835b6020831061031357805182526020820191506020810190506020830392506102f0565b6001836020036101000a038019825116818451168082178552505050505050905001925050506040516020818303038152906040526040518082805190602001908083835b6020831061037b5780518252602082019150602081019050602083039250610358565b6001836020036101000a03801982511681845116808217855250505050505090500191505090815260200160405180910390206004806020026040519081016040528092919082600480156103e5576020028201915b8154815260200190600101908083116103d1575b5050505050915050919050565b60006060826040516020018082805190602001908083835b6020831061042d578051825260208201915060208101905060208303925061040a565b6001836020036101000a038019825116818451168082178552505050505050905001915050604051602081830303815290604052905060405180608001604052808881526020018781526020018681526020018581525060003383604051602001808373ffffffffffffffffffffffffffffffffffffffff1673ffffffffffffffffffffffffffffffffffffffff1660601b815260140182805190602001908083835b602083106104f357805182526020820191506020810190506020830392506104d0565b6001836020036101000a038019825116818451168082178552505050505050905001925050506040516020818303038152906040526040518082805190602001908083835b6020831061055b5780518252602082019150602081019050602083039250610538565b6001836020036101000a038019825116818451168082178552505050505050905001915050908152602001604051809103902090600461059c9291906105cd565b50600191505095945050505050565b6040518060800160405280600490602082028038833980820191505090505090565b82600481019282156105fc579160200282015b828111156105fb5782518255916020019190600101906105e0565b5b509050610609919061060d565b5090565b61062f91905b8082111561062b576000816000905550600101610613565b5090565b9056fea265627a7a7231582021641094f932afb4084390ef0f4e1124033bf1e342ab3568852ce002c288fc4b64736f6c63430005100032",
  "source": "pragma solidity >=0.4.22 <0.8.0;\r\n \r\ncontract SITApreferences2{\r\n    mapping(bytes => uint[4]) userpreferences; // Mapping string (address + key) as you cant use struct or array as mapping keys\r\n\r\n    constructor() public{}\r\n\r\n    function setPreferences(uint spatial, uint identity, uint temporal, uint activity, string memory key) public returns(bool success){\r\n      // Require statement here to ensure all dimensions are 0-4\r\n      bytes memory keyBytes = abi.encodePacked(key);\r\n      userpreferences[abi.encodePacked(msg.sender, keyBytes)] = [spatial,identity,temporal,activity];\r\n      return(true); // Need to return upon success of setting, but need require statement\r\n    }\r\n\r\n    function getPreferences(string memory key) public returns(uint[4] memory preferencesList){\r\n      bytes memory keyBytes = abi.encodePacked(key);\r\n      return(userpreferences[abi.encodePacked(msg.sender, keyBytes)]);\r\n\r\n    }\r\n\r\n\r\n    // Helper functions to convert an address to an ASCII string, Solidity doesn't have an inbuilt conversion method\r\n    // https://ethereum.stackexchange.com/questions/8346/convert-address-to-string\r\n    function toAsciiString(address x) internal pure returns (string memory) {\r\n    bytes memory s = new bytes(40);\r\n    for (uint i = 0; i < 20; i++) {\r\n        bytes1 b = bytes1(uint8(uint(uint160(x)) / (2**(8*(19 - i)))));\r\n        bytes1 hi = bytes1(uint8(b) / 16);\r\n        bytes1 lo = bytes1(uint8(b) - 16 * uint8(hi));\r\n        s[2*i] = char(hi);\r\n        s[2*i+1] = char(lo);            \r\n    }\r\n    return string(s);\r\n  }\r\n\r\n  function char(bytes1 b) internal pure returns (bytes1 c) {\r\n      if (uint8(b) < 10) return bytes1(uint8(b) + 0x30);\r\n      else return bytes1(uint8(b) + 0x57);\r\n  }\r\n\r\n}",
  "sourcePath": "C:\\Users\\joelg\\Desktop\\SITA tests\\contracts\\SITApreferences2.sol",
  "compiler": {
    "name": "solc",
    "version": "0.5.16+commit.9c3226ce.Emscripten.clang"
  },
  "schemaVersion": "3.4.4",
  "updatedAt": "2022-03-09T14:21:25.508Z",
  "networkType": "ethereum",
  "devdoc": {
    "methods": {}
  },
  "userdoc": {
    "methods": {}
  }
}