{
  "contractName": "SITApreferences",
  "abi": [
    {
      "inputs": [],
      "stateMutability": "nonpayable",
      "type": "constructor"
    },
    {
      "inputs": [
        {
          "internalType": "uint256",
          "name": "spatial",
          "type": "uint256"
        },
        {
          "internalType": "uint256",
          "name": "identity",
          "type": "uint256"
        },
        {
          "internalType": "uint256",
          "name": "temporal",
          "type": "uint256"
        },
        {
          "internalType": "uint256",
          "name": "activity",
          "type": "uint256"
        }
      ],
      "name": "setPreferences",
      "outputs": [
        {
          "internalType": "bool",
          "name": "success",
          "type": "bool"
        }
      ],
      "stateMutability": "nonpayable",
      "type": "function"
    },
    {
      "inputs": [],
      "name": "getPreferences",
      "outputs": [
        {
          "internalType": "uint256[4]",
          "name": "preferencesList",
          "type": "uint256[4]"
        }
      ],
      "stateMutability": "nonpayable",
      "type": "function"
    }
  ],
  "bytecode": "0x608060405234801561001057600080fd5b506103df806100206000396000f3fe608060405234801561001057600080fd5b50600436106100365760003560e01c806307a666ba1461003b578063387f147e1461006b575b600080fd5b61005560048036038101906100509190610246565b610089565b60405161006291906102c8565b60405180910390f35b610073610105565b604051610080919061038e565b60405180910390f35b60006040518060800160405280868152602001858152602001848152602001838152506000803373ffffffffffffffffffffffffffffffffffffffff1673ffffffffffffffffffffffffffffffffffffffff1681526020019081526020016000209060046100f892919061018c565b5060019050949350505050565b61010d6101cc565b6000803373ffffffffffffffffffffffffffffffffffffffff1673ffffffffffffffffffffffffffffffffffffffff168152602001908152602001600020600480602002604051908101604052809291908260048015610182576020028201915b81548152602001906001019080831161016e575b5050505050905090565b82600481019282156101bb579160200282015b828111156101ba57825182559160200191906001019061019f565b5b5090506101c891906101ee565b5090565b6040518060800160405280600490602082028036833780820191505090505090565b5b808211156102075760008160009055506001016101ef565b5090565b600080fd5b6000819050919050565b61022381610210565b811461022e57600080fd5b50565b6000813590506102408161021a565b92915050565b600080600080608085870312156102605761025f61020b565b5b600061026e87828801610231565b945050602061027f87828801610231565b935050604061029087828801610231565b92505060606102a187828801610231565b91505092959194509250565b60008115159050919050565b6102c2816102ad565b82525050565b60006020820190506102dd60008301846102b9565b92915050565b600060049050919050565b600081905092915050565b6000819050919050565b61030c81610210565b82525050565b600061031e8383610303565b60208301905092915050565b6000602082019050919050565b610340816102e3565b61034a81846102ee565b9250610355826102f9565b8060005b8381101561038657815161036d8782610312565b96506103788361032a565b925050600181019050610359565b505050505050565b60006080820190506103a36000830184610337565b9291505056fea264697066735822122018e1b0024de8b1d4f7851f8449b8b5a0a6c43a68609b3defebba7440b6fc16d464736f6c634300080d0033",
  "immutableReferences": {},
  "source": "pragma solidity ^0.8.4;\r\n \r\ncontract SITApreferences{\r\n   // Model a preferences set\r\n    //struct Preferences { // Might be easier to store preferences as a list or a different structure, particularly when we want to encrypt\r\n        //uint spatial;\r\n        //uint identity;\r\n        //uint temporal;\r\n        //uint activity;\r\n    //}\r\n\r\n\r\n    mapping(address => uint[4]) userpreferences;\r\n\r\n    constructor(){}\r\n\r\n    function setPreferences(uint spatial, uint identity, uint temporal, uint activity) public returns(bool success){\r\n      // Require statement here to ensure all dimensions are 0-4\r\n      userpreferences[msg.sender] = [spatial,identity,temporal,activity];\r\n      return(true); // Need to return upon success of setting, but need require statement\r\n    }\r\n\r\n    function getPreferences() public returns(uint[4] memory preferencesList){\r\n      return(userpreferences[msg.sender]);\r\n\r\n    }\r\n\r\n}",
  "sourcePath": "C:\\Users\\joelg\\desktop\\SITA-tests\\contracts\\SITApreferences.sol",
  "compiler": {
    "name": "solc",
    "version": "0.8.13+commit.abaa5c0e.Emscripten.clang"
  },
  "schemaVersion": "3.4.4",
  "updatedAt": "2022-03-21T15:48:07.262Z",
  "networkType": "ethereum",
  "devdoc": {
    "kind": "dev",
    "methods": {},
    "version": 1
  },
  "userdoc": {
    "kind": "user",
    "methods": {},
    "version": 1
  }
}